:020000040800F2
:10000000181D0020890200088D340008BB3100084B
:10001000AD330008B11B00086F3A00080000000073
:10002000000000000000000000000000F1010008D6
:10003000031C00080000000035020008F534000829
:10004000A3020008A3020008A3020008A3020008FC
:10005000A3020008A3020008A3020008A3020008EC
:10006000A3020008A3020008A3020008A3020008DC
:10007000A3020008A3020008B51B0008C11B00086A
:10008000A3020008CD1B0008A3020008A302000879
:10009000A3020008A3020008A3020008A3020008AC
:1000A000A3020008A3020008A3020008A30200089C
:1000B000A3020008A3020008A3020008A30200088C
:1000C000A3020008A3020008A3020008A30200087C
:1000D000A30200080D3A0008353A0008A302000800
:1000E000A3020008A3020008A3020008A30200085C
:1000F00081350008A3020008A3020008A30200083B
:10010000A3020008A3020008A3020008A30200083B
:10011000A3020008A3020008A3020008A30200082B
:10012000A3020008A3020008A3020008A30200081B
:1001300000F002F800F04CF80AA090E8000C8244AD
:100140008344AAF10107DA4501D100F041F8AFF28A
:10015000090EBAE80F0013F0010F18BFFB1A43F0A5
:10016000010318470854000028540000103A24BF27
:1001700078C878C1FAD8520724BF30C830C144BF0C
:1001800004680C607047000000230024002500264E
:10019000103A28BF78C1FBD8520728BF30C148BFEA
:1001A0000B6070471FB59DE8030000F099FA00F05E
:1001B000BFFD04000020002104F02CFF401C606003
:1001C0000020002104F03CFFE0601FBD10B510BD11
:1001D00000F054FE1146FFF7E5FF03F090FE01F03A
:1001E000A7F803B4FFF7F2FF03BC01F0D7F8000053
:1001F000224B19680868B0E8F00F80F30988BFF354
:100200006F8F4FF0000080F311884EF00D0E704795
:100210000000000006480068006880F3088862B6A5
:1002200061B6BFF34F8FBFF36F8F00DF00BF00BF1A
:1002300008ED00E0EFF30980BFF36F8F0F4B1A68F2
:1002400020E9F00F106008B54FF0500080F31188DE
:10025000BFF34F8FBFF36F8F04F03CFD4FF00000F2
:1002600080F31188BDE8084019680868B0E8F00F0D
:1002700080F30988BFF36F8F704700BF3400002000
:10028000EFF30580704700000948804709480047A0
:10029000FEE7FEE7FEE7FEE7FEE7FEE7FEE7FEE736
:1002A000FEE7FEE704480549054A064B7047000093
:1002B0007F3500083101000818130020181D0020A8
:1002C000181500201815002070B5064600F0ECF94E
:1002D000056806F10B0020F00704B4429CBF002023
:1002E00070BD2B466A68BAB11068A04210D304F101
:1002F000080188423CBF5068586007D35168101904
:1003000041601168091B016058601460101D70BDC8
:1003100013465268002AE7D12146284600F0CCF95E
:100320000028DED170BD70B50446051F00F0BCF991
:100330000068002C14BF446870BD002C18BFAC428C
:100340003CBF20466468F8D301680A18AA4218BF67
:10035000456003D12A6805461144016028684119A7
:10036000A1421CBF6C6070BD61686960216808446F
:10037000286070BD70B50D460646041F00F094F964
:10038000D0F800C0C5B1E6B105F10B0020F00703BD
:10039000AB423CBF002070BD2068984238BFDCF8FB
:1003A000042013D3C11A08292FD3E01840F8041BE6
:1003B0002360FFF7B8FF28E03046FFF7B4FF0020C6
:1003C00070BD2846BDE87040FFF77EBF002A18BF09
:1003D000A2423CBF94465268F8D30119914216D10B
:1003E00011680844984212D3C11A08293CBF206002
:1003F000506808D35168E0184160216812681144C0
:10040000C91A01602360CCF80400201D70BD181FBC
:10041000FFF75AFF050007D021680A1F211D00F0D1
:100420007CF8201DFFF77FFF284670BD10B50446FD
:1004300000F032F90068005DC00602D504F120002A
:1004400010BD204610BD10B5431C02E010F8011B82
:1004500071B18107FAD14FF0013202C88C1A8C4376
:1004600014EAC211F9D0C01A0A0603D0C01E10BD8A
:10047000C01A10BD0A0401D0801E10BD0902FCD0B4
:10048000401E10BD40EA010370B59B072ED14FF00E
:100490000136042A2AD308C810C99D1B9D43121F88
:1004A00015EAC61517D0D8B2E1B2401A50EA056174
:1004B00010D198B2A1B2401A50EA05410AD123F0F6
:1004C0007F4024F07F41401A50EA052102D1180EE6
:1004D000A0EB146070BDA342DBD018BA21BA8842E9
:1004E00001D9012070BD4FF0FF3070BD0AB9002066
:1004F00070BD10F8013B11F8014B63B1A3420AD162
:10050000521E08D010F8013B11F8014B1BB1A34259
:1005100001D1521EEDD1181B70BD10B5203AC0F0AC
:100520000B80B1E81850203AA0E81850B1E81850F4
:10053000A0E81850BFF4F5AF5FEA027C24BFB1E831
:100540001850A0E8185044BF18C918C0BDE81040A2
:100550005FEA827C24BF51F8043B40F8043B08BFAB
:100560007047D20728BF31F8023B48BF11F8012B72
:1005700028BF20F8023B48BF00F8012B70474FF01E
:1005800000020429C0F0128010F0030C00F01B8060
:10059000CCF1040CBCF1020F18BF00F8012BA8BF6E
:1005A00020F8022BA1EB0C0100F00DB85FEAC17C32
:1005B00024BF00F8012B00F8012B48BF00F8012BE5
:1005C00070474FF0000200B5134694469646203916
:1005D00022BFA0E80C50A0E80C50B1F12001BFF4FC
:1005E000F7AF090728BFA0E80C5048BF0CC05DF862
:1005F00004EB890028BF40F8042B08BF704748BFB0
:1006000020F8022B11F0804F18BF00F8012B704723
:100610004FF0013C50F8042B51F8043B9A4221D191
:10062000A2EB0C03934313EACC1317D150F8042B1D
:1006300051F8043B9A4215D1A2EB0C03934313EA01
:10064000CC130BD150F8042B51F8043B9A4209D13A
:10065000A2EB0C03934313EACC13DBD04FF0000062
:10066000704700BFD01A01BAB1FA81F101F0180148
:1006700022FA01F0CB40C1F12001DBB2C0B2C01AB6
:100680002CFA01F3D11A914311EAC311E6D1704754
:10069000704770477047000010B500F049FB001D1F
:1006A00010BD00BF7149000000487047C012002013
:1006B000704770477047704738B504460A460020B7
:1006C0006946AFF30080002808BF38BD0246009994
:1006D000204600F035FB012038BD012000F0C6BBEC
:1006E000F8B5AFF30080054600200C46102000BF8F
:1006F0000646A819A0420DD9324669460020AFF33C
:100700000080070008BF00F0B1FB0098A04218BFAE
:100710000546C419FFF7C8FF05600746F01D20F025
:1007200007004619284600F00AF8B44208BFF8BD91
:10073000A21B31463868BDE8F84000F001BB00213B
:100740000160C0E901107047102070472DE9FF4F8C
:1007500006468BB00878FF2806D0491C2D2805D006
:1007600000244FF0000908E000200CE00124F8E725
:1007700009EB8903491C00EB43090878FF28F7D1EE
:1007800014B1C9F100008146107800252C46AA4614
:1007900029462D2801D02B2804D1521C2D2813D0F6
:1007A000002082468B461078FF280FD04FF0000CB7
:1007B0000A21521CA5FB017804FB018105FB0C11E9
:1007C000C5194BEB0104EEE70120EAE700210846DA
:1007D0004FF00000BAF1000F02D000EB800040089B
:1007E000C0F38157012F01DD4FF0FF370E9955EA15
:1007F000040009EB01080BD04FF0020918F5FA7F4D
:1008000016DA4FEACA70002F706008DD012007E099
:100810004FEACA70C6E900B00FB0BDE8F08F002003
:10082000306000F089FAC0F800901821084616E000
:10083000B8F5FA7F18DD002F02DAF748784401E0B6
:10084000F6487844D0E90010C6E9001040EACA70C2
:10085000706000F071FAC0F80090142108460FB0E3
:10086000BDE8F04F04F079BD002108464FF00000CC
:10087000B8F10001099002DAC7F1000200E03A463F
:1008800001DAC8F1000106A800F07EFA06AB93E891
:10089000070003AB83E8070044F23E005BEA040173
:1008A0000090584604D144F21E012C465D4600914A
:1008B000210C0904014306D10099240444EA15449B
:1008C0002D041039009104F07F41014306D10099B5
:1008D000240244EA15642D020839009104F07041A5
:1008E000014306D10099240144EA15742D01091F22
:1008F000009104F04041014306D10099A40044EA6C
:100900009574AD00891E009104F00041084304D1A4
:1009100000986D196441401E00904FF001033A4663
:100920006846B8F1000FCDE9014503A902DD01F0E9
:1009300008F801E000F0DBFFBAF1000F04460D46B5
:1009400001D084F00044002108464FF000000999CE
:1009500040F2FF77484010F00C0F07D124F0004020
:10096000284303D0C4F30A50B84212D100F0E4F98E
:10097000C0F80090C4F30A50B8420AD1A84878449D
:10098000D0E90010C6E9001004F00041084370608F
:1009900042E7C6E900543FE72DE9FF4F1F464FF0FD
:1009A000000A4FF0FF38454691B0D7E90146CDF82F
:1009B0003CA000F0BDF9C0680168405C1090B969C6
:1009C00012986D1C8847396A814688470028F6D1FD
:1009D000B9F1FF3F0AD0002E24F4D06411DDB9F143
:1009E0002B0F08D0B9F12D0F0BD102E0404615B006
:1009F00013E744F48064B96912986D1C8847761E29
:100A00008146600504A901D52D2000E02B20002E91
:100A100001F1010B0DF130088DF810003FDDB9F147
:100A2000690F08D0B9F1490F05D0B9F16E0F02D0A6
:100A3000B9F14E0F1CD13B4601A8009580E8500249
:100A4000DDE912126FF0020004F0EEFCC11CCED101
:100A50000EE0B96912986D1C884781461398761E7E
:100A600044F4007405600F98401C002E0F9016DDB2
:100A7000B9F1300FEDD0B9F1780F02D0B9F1580FBC
:100A80000DD10F9801280AD13B46CDE90054DDE98C
:100A90001212001F029604F0C5FCC11CA7D11099C8
:100AA00089453ED144F0800406E01399681CAAF100
:100AB000010A44F400740860B9696D1C1298761E2E
:100AC000884730288146F0D02BE01099894505D120
:100AD000200603D4761E44F0800418E0484603F054
:100AE00058F808B3761E0DF123018B4544F40074C9
:100AF00008D2A9F130000BF8010B200607D5AAF1A6
:100B0000010003E0200602D40AF101008246A0059C
:100B100002D51399681C0860B96912986D1C884742
:100B20008146002ED1DC53E0002E51DDB9F1650F76
:100B300002D0B9F1450F4BD1A00549D5B9696D1C5B
:100B40001298761E24F440748847002E81460CDDEE
:100B50002B2804D0B9F12D0F07D144F48074B96962
:100B600012986D1C8847761E8146E00501D52D211F
:100B700000E02B2108F8011BCDF8008021E0761E53
:100B80000DF13901884544F400740CD2A9F130000C
:100B900010F0FF0088F8000002D10099884509D9BB
:100BA00008F1010806E0E00501D51E4801E042F227
:100BB0000F708246B96912986D1C88478146139858
:100BC0000560002E04DD484602F0E3FF0028D6D180
:100BD000F96912988847FF2053468BF8000088F87F
:100BE000000000200A900B9004AA0CA90AA8FFF7A5
:100BF000ADFDA00502D46FF00100F8E614F0240F5B
:100C000012D0E0071CD13868DDE90A12031D3B60F1
:100C10000068C0E9001213E0544D0000464D00008A
:100C20000A4C0000F1D8FFFF0AA9684602F040FF15
:100C3000E00705D13868009A011D3960006802603C
:100C40002846D4E6426842B1016811F8013B23B15D
:100C5000521EC0E90012184670470121C160881E6B
:100C6000704742685AB1C368016843B983688B42D0
:100C700005D0491E521CC0E90012002070474FF0F9
:100C8000FF3070470FB4002300B589B00CA9009164
:100C90000B99CB60214B7B440693214B7B440793FC
:100CA00004236FF00042CDE901321E4A7A446B46BC
:100CB00008920246002004F0B3FB09B05DF814FB73
:100CC00070B506464FF0FF3015460C46324686B0EA
:100CD0000091CDE9010169460020049004A8FFF7C6
:100CE000D1FF02460498211825B108B1084600E05A
:100CF00020462860049800280DD0002A02DD0098C4
:100D0000884208D03246081B69460094CDE90104A8
:100D100004A8FFF7B7FF06B070BD0000ABFFFFFFF0
:100D2000C3FFFFFFC500000000487047B812002055
:100D300000487047D812002000487047B8120020C1
:100D4000034640688C46002818BF88423CBF0346D3
:100D50004068F8D318681844884207D00CF10300A3
:100D600020F00700001D411A521A0146081D0A60B2
:100D7000FFF7D9BA10B50446FFF78EFC0068005D96
:100D800000F0010010BD00002DE9F0478146164635
:100D90008AB0354878440DC88DE80D003248784453
:100DA000801C03AC0DC884E80D0041F69B3008445C
:100DB000372190FBF1F290FBF1F5A5F1800501FBE5
:100DC00012041B3C02D56442012000E00020DFF841
:100DD00098A080460027FA44AAF1BE0A0EE0E00778
:100DE0000AD03246684607EB470101230AEB81012E
:100DF00000F092FD8DE8070064107F1C002CEED1FE
:100E0000194F7F44AE3F19E0E80715D007EB0410F7
:100E10000DF1180A90E80E008AE80E00C068F04252
:100E200001D1981908903246012306A903A800F0C1
:100E300073FD03AB83E807006D10641C002DE3D144
:100E40004FF0010332466946B8F1000F03A802D003
:100E500000F038FD01E000F05FFDC9E90001C9F8CC
:100E600008200AB0BDE8F087A447000010B500F0E4
:100E70006DFABDE8104000F064BA70477546FFF7A0
:100E800053FFAE4605006946534620F007008546ED
:100E900018B020B5FFF706FABDE820404FF0000675
:100EA0004FF000074FF000084FF0000B21F0070152
:100EB000AC46ACE8C009ACE8C009ACE8C009ACE895
:100EC000C0098D46704710B5FFF736FF006810BDAA
:100ED00010B50446FFF730FF046010BD2DE9FF4F49
:100EE0001F464FF03C0987B04FF00042DDE9141077
:100EF00001F10108DDF858A002EA405003900020FB
:100F000005908346054604460490B969461E089834
:100F10008847AAF1010A0290BAF1000F3BDD02985E
:100F20002E2815D0102100F052FA00282EDB4FF0A9
:100F3000010B0599014317D0B9F1000F0BDB4A46AD
:100F4000C11700F031FA05430C43A9F1040905E08B
:100F5000012004900BE008B145F001050120059047
:100F6000049820B9361D02E0049800B1361FB96913
:100F7000089808F101088847BBF1000FAAF1010A9F
:100F80000290C9D00999C1F80080C5E7029870287D
:100F900008D0502806D0F96908988847BBF1000F9F
:100FA00014D04FE0002002900120BBF1000F04900C
:100FB00009D0B969089808F101088847AAF1010920
:100FC000B9F1000F07DCF969089888476FF0010054
:100FD0000BB0BDE8F08F2B2804D02D280CD14FF09A
:100FE000FF300490B969089808F101088847A9F111
:100FF0000109B9F1000FE6DD411CE4D00A2100F03F
:10100000E6F90028DFDB029908F1010801EB810114
:1010100000EB41000290B969089888470A2100F066
:10102000D6F9099AA9F10109B9F1000FC2F80080B7
:1010300001DD0028E7DAF9690898884704990298E1
:1010400000FB016655EA040004D004F040410900A9
:1010500002D006E0039898E0A40044EA9574AD003D
:10106000B61E04F00041080002D16D196441761EDD
:10107000159810F0240F03D04FF00B095C4803E0E3
:101080004FF028096FF07D008246564507DAAAEB3B
:1010900006018944B9F1410F01DD4FF041090120FA
:1010A0000021A9F1010200F07FF9024628400B4619
:1010B0002140084301D0012100E00021501E02918F
:1010C00043F1FF3128402140084301D0012000E0D6
:1010D00000200299834651EA0B014FD000210846B7
:1010E0004FF00000039900F4400039B100EB80009C
:1010F0004FF4400100EBD07001EA60008015012838
:1011000002DD4FF0FF3000E013D0401C36D00298D3
:1011100060B3BBF1000F0CD14A460120002100F062
:1011200043F928402140084301D0012000E000207D
:10113000E0B101204A46002100F036F9034640198B
:101140000A4661412D1A8C4111D3B9F1400F09DDD6
:10115000159810F0240F02D0AAF1340603E0AAF18A
:10116000170600E0761C00254FF0004406E05B1EE9
:1011700042F1FF3220EA030521EA0204CAF101002C
:10118000B04206DA1B490398084301900020009002
:101190000EE0039AC4F3D321E80A0A43164940EA51
:1011A00044500A433146CDE90002684602F0E6FCAD
:1011B000159810F0240F0BD01598C00715D138687A
:1011C000DDE90012031D3B600068C0E900120CE07D
:1011D00002A8694602F06CFC1598C00705D1386872
:1011E000029A011D3960006802604046F0E6000086
:1011F00002FCFFFF0000F07F0000F03F2DE9FF4FF1
:1012000092461D4685B04FF00041DDE9124BDDE905
:1012100014727F1E01EA4B50414940F0FF4940EAF9
:101220000108002122F020004928049102D04E2814
:1012300028D04CE03BA0012607C88DE80700A9692B
:101240000698641C88477F1E014606D41DF80600D8
:1012500018B121F0200181420BD0E9690698884736
:10126000032E34D0082E32D06FF0010009B0BDE853
:10127000F08F761C032E01D0082EE0D1601CCAF836
:101280000000DCE7A9690698641C88477F1E2AD401
:1012900020F02000412826D1A9690698641C8847BF
:1012A0007F1E20D420F020004E281CD1A96906986A
:1012B000641C88477F1E48F4002849F48009CAF856
:1012C000004001D4282806D0E969069888475FEADB
:1012D000CB7012D022E0A9690698641C88477F1E53
:1012E00001D4002803DAE96906988847BCE7292871
:1012F000F1D1641CCAF80040E9E71BF0240F07D0C5
:1013000028680499031D2B600068C0E9001805E0F7
:101310002868021D2A600068C0F800902046A5E7F2
:101320000000F07F494E46494E49545900000000E4
:1013300010B50446AFF300802046BDE81040FEF72C
:1013400050BF002801D000F029B8704710B501281F
:1013500005D0002103A000F048F8012010BD09A12C
:10136000F8E7000053494752544D454D3A204F7518
:1013700074206F662068656170206D656D6F72798D
:10138000000000003A2048656170206D656D6F7245
:101390007920636F7272757074656400014918205A
:1013A000ABBEFEE726000200B2F120030AD5C2F16F
:1013B000200301FA02F120FA03F300FA02F041EAF5
:1013C0000301704700FA03F14FF0000070473A281C
:1013D00000D2303820F02002412A01D3A2F1370098
:1013E000884201D34FF0FF30704770B505460C4678
:1013F0000A2000E06D1C00F011F835B128780028B3
:10140000F8D102E0641C00F009F814B1207800283B
:10141000F8D1BDE870400A20AFF3008008B56946F6
:101420008DF800000320ABBE08BD20F07F4C80EAA1
:10143000030023F07F47ACEB070303F57C5300F078
:10144000004003F1FF032DE980494FEA154B09B431
:101450004FEA144325EA0B4E24EA03480FF2042610
:1014600006EB132749083E785FEA320203FB066762
:10147000C7F5000707FB06F64FEA54374FEAD64692
:1014800006F1020607FB066CCCF1005C4FEA1C4734
:101490002CEA074C07FB06F40CFB06F504EB15469B
:1014A0004FEA961634BF00204FF000404FEAD13784
:1014B00006FB07FC4FEA1C4C0CFB0BF7D21B03FB93
:1014C0000CF761EB07010CFB0EF7B0EB074072EB7A
:1014D00017420CFB08F734BFA2EB0742B2EB0742FE
:1014E00061EB17414FEA0C444FEA910706FB07FCFA
:1014F0004FEA1C4C0CFB0BF7B0EBC74072EB5732BA
:1015000003FB0CF734BFA2EBC742B2EBC74261EB5F
:1015100057310CFB0EF7B0EBC70072EB57720CFBA8
:1015200008F734BFA2EBC702B2EBC70261EB5771F9
:10153000039F4FEA816141EA921104EBCC044FEA28
:10154000D1374FEA826206FB07FC42EA90124FEA6B
:1015500080604FEA1C4C0CFB0BF7D21B03FB0CF713
:1015600061EB07010CFB0EF7B0EB074072EB174283
:101570000CFB08F734BFA2EB0742B2EB074261EB6A
:1015800017414FEA8C554FEA910704EB9C2406FB68
:1015900007FC4FEA1C4C0CFB0BF7B0EBC74072EB9F
:1015A000573203FB0CF734BFA2EBC742B2EBC74282
:1015B00061EB57310CFB0EF7B0EBC70072EB5772C3
:1015C0000CFB08F734BFA2EBC702B2EBC70261EB1A
:1015D000577115EB4C254FEA816141EA92114FEAB0
:1015E00082624FEAD13742EA901206FB07FC44F1CF
:1015F00000044FEA80604FEA1C4C0CFB0BF7D21B37
:1016000003FB0CF761EB07010CFB0EF7B0EB074097
:1016100072EB17420CFB08F734BFA2EB0742B2EBA8
:10162000074261EB174115EB1C154FEA813141EA86
:1016300092414FEA823242EA90424FEA80304FEACA
:101640000C7644F1000448EA03434EEA0B484FF09D
:10165000000EB2EB080C71EB030724BF624639465B
:101660004EEB0E0E4FF0000B0018524149414BEB70
:101670000B0BB2EB080C71EB03077BF1000B24BFE3
:10168000624639464EEB0E0E4FF0000B00185241E9
:1016900049414BEB0B0BB2EB080C71EB03077BF1F1
:1016A000000B24BF624639464EEB0E0E51EA02078C
:1016B00018BF46F0010616EB0E7655F1000254F104
:1016C000000103D5BDE88901BDE80088BDE88901B6
:1016D000BDE80048B619524141EB0101A3F10103F5
:1016E000704780807F7E7D7C7B7A7978777676758F
:1016F0007473727171706F6E6E6D6C6C6B6A6A6907
:101700006868676666656464636362616160605FA0
:101710005F5E5E5D5D5C5C5B5B5A5A595958585719
:101720005756565555555454535352525251515081
:1017300050504F4F4F4E4E4D4D4D4C4C4C4B4B4BD4
:101740004A4A4A494949484848474747474646461A
:101750004545454444444443434343424242424155
:101760004141000046EA0646A3F570534FEA16468B
:1017700046EA42564FEAD22242EA415210B54FEAB7
:10178000D121A3F1010300F02FF820F0004000F177
:10179000020C00F0004701EB00501146BCF5006F51
:1017A00040EA070000D210BDBAF1000F0AD01CB504
:1017B00003B44FF004004FF004014FF000000FBCE1
:1017C000BDE810404FF00001BBF1010FB9BF044864
:1017D0004FF0FF310348002140EA070010BD00BF71
:1017E000FFFFEF7F0000F07F002B9C4630D4770096
:1017F0002BD01CB54FEA370703B44FF010004FF061
:101800001001BAF1000F06D0BCF1000FDCBF40F0B0
:10181000080040F008014FF000000FBCBDE8104088
:101820000BF1010BBBF1010F08BF5FEA170722BFE5
:1018300012F1010211F101014FF0004143F10003E7
:1018400000F0004043EA00007047F9D35708D0E7A2
:1018500046EA064613F1400F4FEA16461FDD13F124
:10186000200FDFBF16430A46002120335B42BED063
:10187000C3F1200746EA064602FA07F74FEA164682
:1018800046EA0706C3F1200722FA03F201FA07F736
:1018900021FA03F14FF0000342EA0702A7E746EA04
:1018A000020646EA06464FEA164646EA0106BCBF6D
:1018B00046EA0646360C4FF000034FF000024FF0A8
:1018C000000194E72DE9804C9A46934670B491E864
:1018D000380007C831EA400C48BF34EA430C03D54E
:1018E000FFF7A3FDFFF780FFF0BCBDE8008C2DE9FA
:1018F000804C9A46934670B491E8380007C831EAA4
:10190000400C48BF34EA430C03D5FFF78EFDFFF7C8
:1019100029FFF0BCBDE8008C2DE9804C9A46934627
:1019200070B491E8380007C810F0804F08BF13F07A
:10193000804F03D100F01AF8FFF756FFF0BCBDE866
:10194000008C2DE9804C9A46934670B491E838009B
:1019500007C810F0804F08BF13F0804F03D100F08C
:1019600005F8FFF7FFFEF0BCBDE8008C20F07F47D4
:1019700080EA030023F07F4C07EB0C03A3F57C53B4
:1019800000F00040A3F1FE0392F0000F00F0B380DE
:1019900095F0000F00F077802DE901494FEA1140E2
:1019A0004FEA144621EA004800FB06FC24EA0647F9
:1019B00008FB06F607FB08F800FB07F718EB0648DC
:1019C0004CEB164C4FEA124B18EB07484FEA154602
:1019D0004CEB174022EA0B4E0BFB06FC25EA0647B0
:1019E0000EFB06F607FB0EFE0BFB07F71EEB064E83
:1019F0004CEB164C4FF000061EEB074E4CEB174B12
:101A000018EB0B0840F1000018EB0E0B58EB000828
:101A100040F100008F1A4FF000013CBFC943661B24
:101A200014BFB5EB040C00213CBFC943F61B4FEAC1
:101A300017444EEA8E0E27EA04454FEA1C4704FB82
:101A400007622CEA074C05FB07F70CFB05F604FBC5
:101A50000CFC16EB074642EB174216EB0C4642EB2A
:101A60001C421BEB060658EB0202414146EA9E0669
:101A700001D5BDE80189B619524141EB0101A3F13D
:101A80000103BDE801894FEA14454FEA114724EAF2
:101A9000054621EA074C05FB07F406FB07F70CFB9C
:101AA00006F105FB0CFC11EB074144EB17444FEA30
:101AB000124711EB0C4144EB1C4422EA074C05FB96
:101AC00007F206FB07F70CFB06F605FB0CFC16EB12
:101AD000074642EB174216EB0C4642EB1C456A18D0
:101AE00054F1000148BF7047B619524141EB010162
:101AF000A3F10103704795F0000F37D04FEA114270
:101B00004FEA144721EA024624EA074C02FB07F198
:101B100006FB07F70CFB06F402FB0CFC14EB074476
:101B200041EB17414FEA154714EB0C4441EB1C41C4
:101B300025EA074C02FB07F506FB07F70CFB06F648
:101B400002FB0CFC16EB074645EB174516EB0C4663
:101B500045EB1C42121951F1000148BF7047B619FC
:101B6000524141EB0101A3F1010370474FEA1445D3
:101B70004FEA114724EA054621EA074C05FB07F125
:101B800006FB07F70CFB06F24FF0000605FB0CFC0A
:101B900012EB074241EB174112EB0C4251EB1C4197
:101BA00048BF7047921841EB0101A3F10103704750
:101BB000FEE70000014800F0E7B80000B404002090
:101BC000014800F0E1B80000F8040020014800F0EE
:101BD000DBB800003C05002030B590F840500124EF
:101BE000AC40C56B6C60046863604368102B03688D
:101BF00003D099600068C26030BD9A600068C1601F
:101C000030BD704772B6FEE710B590F82110002283
:101C1000022905D00421816380F82020012010BD15
:101C200001680B6823F00E030B6001680B6823F05A
:101C300001030B6090F84030C46B012101FA03F3FB
:101C4000636080F8211080F82020104610BD00004D
:101C50002DE9F05F90F821100024022903D004211F
:101C60008163012485E001680A6822F00E020A609F
:101C700001680A6822F001020A603F4E3E4FB21529
:101C8000DFF8F4C0DFF8F090DFF8ECA0DFF8E8B0A0
:101C9000DFF8E4E00168783F13011502ACF1640C51
:101CA000A9F15009AAF13C0AABF1280BAEF1140ED0
:101CB0004FF48018B14227D9B9420ED0614512D0F5
:101CC00049451DD0514518D0594518D0714501D10D
:101CD000424615E0294EB14201D1012210E0274EC3
:101CE0001436B14201D110220AE0244E2836B14206
:101CF00006D0224A3C32914201D11A4600E02A46DF
:101D00001E49091F0A602BE0B94213D0614517D064
:101D1000494522D051451DD059451DD0714501D1AD
:101D200042461AE0B14202D14FF0807215E0134EE4
:101D3000B14201D1012210E0104E1436B14201D15E
:101D400010220AE00D4E2836B14206D00B4A3C3232
:101D5000914201D11A4600E02A46074980394A607B
:101D6000012180F82110002180F82010416B01B181
:101D700088472046BDE8F09F8000024008040240EA
:101D800090F82100704700002DE9F05FC16B0A68F0
:101D900001680B68046C4FF0040808FA04F8844DDD
:101DA000844E854FDFF814C2DFF81492DFF814A2D6
:101DB000DFF814B2DFF814E218EA020F65D05FEA28
:101DC000437862D50A68920603D40A6822F00402B6
:101DD0000A60DFF8F0814FF48062016808F11408AE
:101DE00013011402414524D9A9420DD0B1420FD0AC
:101DF000B9421AD0614515D0494515D0514501D198
:101E0000120312E0594501D104220EE0714501D1BF
:101E100040220AE06D4D1435A94206D06B4A2832A3
:101E2000914201D11A4600E022466749091F0A6023
:101E300029E0A94213D0B14215D0B94220D0614562
:101E40001BD049451BD0514502D14FF4800217E009
:101E5000414502D14FF0806212E0594501D1042280
:101E60000EE0714501D140220AE0584D1435A942D7
:101E700006D0564A2832914201D11A4600E0224645
:101E80004B4908394A60C16A71E04FF0020808FA0C
:101E900004F818EA020F70D05FEA83786DD50A68FB
:101EA000920606D40A6822F00A020A60012180F82C
:101EB0002110DFF810814FF40072016808F1140856
:101EC00013011402414524D9A9420DD0B1420FD0CB
:101ED000B9421AD0614515D0494515D0514501D1B7
:101EE000120312E0594501D102220EE0714501D1E1
:101EF00020220AE0354D1435A94206D0334A283253
:101F0000914201D11A4600E022462F49091F0A607A
:101F100029E0A94213D0B14215D0B94220D0614581
:101F20001BD049451BD0514502D14FF4001217E098
:101F3000414502D14FF0007212E0594501D1022211
:101F40000EE0714501D120220AE0204D1435A9424E
:101F500006D01E4A2832914201D11A4600E022469C
:101F6000134908394A60002180F82010816A00294D
:101F70001CD0BDE8F05F0847FFE70825A5401542E3
:101F800014D01A0712D50A6822F00E020A6090F8DF
:101F90004020C36B012101FA02F25A60816380F88C
:101FA0002110002180F82010016BE0E7BDE8F09FD0
:101FB000080002401C000240300002404400024081
:101FC000580002406C000240080402401C04024019
:101FD00030B560B11A4B026814219A4209D2194BEC
:101FE0001344B3FBF1F18900016417490AE00120B1
:101FF00030BD134B5B421344B3FBF1F18900016424
:102000000F490839C163022180F82110136843F693
:10201000F0718B43F0E901142143D0E902452C43D0
:1020200021430469214344692143846921431943BD
:10203000116000214163012242770177084630BDDB
:1020400008040240F8FFFDBF0000024070B50446DE
:1020500090F82000002501280CD0012084F82000F1
:1020600094F821600020012E06D084F8200002257B
:10207000284670BD022070BD022684F82160A0634E
:102080002068066826F0010606602046FFF7A4FDDA
:10209000E06A00282068016802D041F00E0106E0E5
:1020A00021F0040101602068016841F00A0101602B
:1020B0002068016841F001010160D9E72DE9F84F7E
:1020C000DFF8C8910024A9F1040B23460F2709F17A
:1020D000040AABF1040ED1E00125A54006EA050291
:1020E000AA4276D1DFF8A8C14E68A6EB0C08664577
:1020F0002BD00DDC032E34D005DC36B3012E19D0E5
:10210000022E2FD11BE0112E16D0122E2AD119E04B
:10211000B8F5881F19D006DCB8F5803F15D0B8F5A2
:10212000801F1FD111E0B8F5001F0ED0B8F5041FB5
:1021300018D10AE0CB6815E0CB681B1D12E0CB6814
:1021400008330FE0CB680C330CE08B682BB1012B0C
:102150004FF0080303D0456104E0042302E0056169
:1021600000E00023FF2A01D8064601E000F1040642
:102170004FEA840501D9A5F12005D6F8008007FAB9
:1021800005FC28EA0C0803FA05F548EA0508C6F834
:1021900000804D68ED0070D53E4DAE6946F00106F9
:1021A000AE61AD6924F0030605F0010500953A4DD6
:1021B00006EB050CDCF80850A607360F07FA06F800
:1021C00025EA0805DFF8D480404503D14FF0000828
:1021D00025E052E0DFF8C880404502D14FF0010809
:1021E0001DE0DFF8C080404502D14FF0020816E044
:1021F000DFF8B480404502D14FF003080FE0DFF86C
:10220000AC80404502D14FF0040808E0DFF8A08020
:10221000404502D14FF0050801E04FF0060808FAEA
:1022200006F848EA0508CCF808804D68D9F800603F
:10223000ED024D4601D5164300E096432E604D68F1
:10224000DAF80060AD02554601D5164300E096432A
:102250002E604D68DBF80060AD035D4601D5164386
:1022600000E096432E604D68DEF80060ED03754691
:1022700001D5164300E096432E60641C0A6816469A
:10228000E2407FF429AFBDE8F88F00000804014068
:102290000000111000100240000001400008014041
:1022A000000C0140001001400014014000180140E2
:1022B000001C01400AB1016170470904FBE70000FE
:1022C00001488068704700002400002002488168AF
:1022D000027811448160704724000020074810B53F
:1022E000016841F010010160032000F0A1F80F2007
:1022F00000F006F800F04AF8002010BD002002406F
:1023000030B505461C4887B0816941F400518161B0
:10231000806906A900F40050009001A800F030F98F
:1023200000F05EF91549164AB0FBF1F11548491E57
:102330000260416040F2E7320021C0E90321816080
:10234000816100F015FB040012D10E4800F03EFB45
:1023500004000DD12C2000F03DF8102D07D20022F2
:1023600029462C2000F044F80748056000E00124CD
:1023700007B0204630BD00000010024040420F0070
:102380000034014080050020280000200F4808B5D7
:10239000816941F001018161816901F001010091D0
:1023A000C16941F08051C161C069002200F08050D4
:1023B00000900F21901E00F01BF80548416821F0A5
:1023C000E06141F00071416008BD00000010024072
:1023D00000000140002809DB00F01F0201219140AC
:1023E0004009800000F1E020C0F8001170470000B3
:1023F000F0B40E4B1B680C46C3F30223C3F1070570
:10240000042D00D90425191D072901D2002300E05D
:10241000DB1E012606FA05F1491E214099409E4027
:10242000761E16403143F0BC01F022BB0CED00E0FB
:10243000064900F0070208684FF6FF03184040EA1B
:102440000220034A10430860704700000CED00E0D2
:102450000000FA052DE9F0470F46050061D0434E14
:10246000306800F00700B84209D2306820F0070059
:1024700038433060306800F00700B84251D1286816
:102480003B4C810712D5400703D5606840F4E060FB
:1024900060602878000703D5606840F46050606091
:1024A0006068A96820F0F000084360602878C007E1
:1024B00028D06868012810D02168022810D0890728
:1024C00000292EDA616821F0030101436160FFF702
:1024D000F7FE804641F288390DE021688903EFE775
:1024E0008901EDE7FFF7ECFEA0EB0801494502D9B1
:1024F0000320BDE8F0876068696800F00C00B0EB6D
:10250000810FEFD1306800F00700B8420BD9306876
:1025100020F0070038433060306800F00700B84210
:1025200001D00120E5E72878400705D56068E96813
:1025300020F4E060084360602878000706D56068F2
:10254000296920F4605040EAC100606000F058F84A
:102550006168084AC1F30311515CC840064908602C
:1025600006480068FFF7CCFE0020C2E700200240CA
:1025700000100240A654000830000020280000206F
:102580000F2202600C4A536803F003034360536850
:1025900003F0F0038360536803F4E063C3605268A0
:1025A0004FF4E06303EAD20202610448006800F0DD
:1025B0000700086070470000001002400020024041
:1025C0000448054900684968044AC1F30221515C86
:1025D000C84070473000002000100240B654000888
:1025E0000448054900684968044AC1F3C221515CA6
:1025F000C84070473000002000100240B654000868
:102600000E4A51680E4801F00C03042B11D0082B20
:102610000FD10C48C1F38343C903C05C0AD551688C
:10262000084AC1F34041921E515C054A5043B0FB39
:10263000F1F0704704494843704700000010024021
:1026400000127A009654000800093D002DE9F84F69
:10265000040070D02078C04DC00749D06868C0F32E
:102660008100012807D06868C0F38100022809D1E1
:102670006868C00306D52868800339D560680028DB
:10268000E7D035E06068B0F5803F0BD010B1B0F511
:10269000A02F11D0286820F480302860286820F40A
:1026A000802002E0286840F480302860606890B1A3
:1026B000FFF706FE06460AE0286840F480202860FE
:1026C000F0E700BFFFF7FCFD801B642873D8286883
:1026D0008003F7D50CE0FFF7F3FD064605E000BFE9
:1026E000FFF7EEFD801B6428F0D828688003F7D43C
:1026F00020789A4E80074FF001094FF0000839D535
:10270000686810F00C0F07D06868C0F381000228D9
:1027100009D16868C00306D42868800714D52069E9
:10272000012808D110E02069B0B1C6F80090FFF789
:10273000C7FD074605E00AE1FFF7C2FDC01B0228FE
:10274000C4D828688007F7D52868616920F0F800A8
:1027500040EAC10028600DE0C6F80080FFF7B0FD38
:10276000074604E0FFF7ACFDC01B022823D8286809
:102770008007F7D4207800072CD57948A169D9B112
:10278000C0F80090FFF79CFD074604E0FFF798FDB6
:10279000C01B02280FD8686A8007F7D571484FF42C
:1027A000FA510068B0FBF1F0009000BF0098411EA4
:1027B0000091FAD20EE080E0C0F80080FFF780FDC3
:1027C000074604E0FFF77CFDC01B022875D8686A45
:1027D0008007F7D42078400760D5E8690027C0005B
:1027E00008D4E86940F08050E861E869012700F00A
:1027F000805000905C480168C90513D40168834685
:1028000041F480710160FFF75BFD824606E000BF86
:10281000FFF756FDA0EB0A0064284ED8DBF8000055
:10282000C005F5D5E06801280AD008B1052813D005
:10283000286A20F001002862286A20F0040002E0E3
:10284000286A40F001002862E06841F2883B98B1B4
:10285000FFF736FD82460BE0286A40F0040028624C
:10286000EEE700BFFFF72CFDA0EB0A0159455AD84F
:10287000286A8007F6D50CE0FFF722FD824605E0C6
:10288000FFF71EFDA0EB0A0159454CD8286A8007C6
:10289000F6D41FB1E86920F08050E861E06988B3A0
:1028A0006968C1F38101022944D00228C6F860801A
:1028B00004D0FFF705FD044638E034E0FFF700FDE3
:1028C000074604E0FFF7FCFCC01B02282BD8286851
:1028D0008001F7D4206AB0F5803F05D16868A1680F
:1028E00020F4003008436860D4E9080108436968AF
:1028F00021F4741108436860C6F86090FFF7E0FCAB
:10290000044606E025E000BFFFF7DAFC001B0228C2
:1029100009D828688001F7D51BE000BFFFF7D0FC7D
:10292000001B022802D90320BDE8F88F2868800127
:10293000F4D40EE00128F7D06868226A00F48031F0
:10294000914204D1616A00F47010884201D00120E4
:10295000EAE70020E8E700000010024000004242E1
:1029600080044242300000200070004070477047F1
:1029700010B5040003D094F83D0010B107E0012029
:1029800010BD002084F83C00204600F01EF8022014
:1029900084F83D00211D206800F0F8FD012084F836
:1029A000460084F83E0084F83F0084F8400084F834
:1029B000410084F8420084F8430084F8440084F81D
:1029C000450084F83D00002010BD704790F83D1090
:1029D000012901D001207047022180F83D100168D3
:1029E000CA6842F00102CA6000680E4988420ED0EF
:1029F0000D4988420BD0B0F1804F08D00B49884276
:102A000005D00B49884202D00A49884204D1816826
:102A100001F00701062903D0016841F001010160BE
:102A200000207047002C01400034014000040040A9
:102A300000080040000C0040704770B50446006874
:102A400001694FF00005C943890715D4C168C9431E
:102A5000890711D4E91E016101202077206880696F
:102A60008007204602D0FFF7E7FF04E000F098F867
:102A7000204600F096F8257720680169C943490788
:102A800017D4C168C943490713D46FF00401016129
:102A9000022020772068806910F4407F204602D011
:102AA000FFF7CAFF04E000F07BF8204600F079F859
:102AB000257720680169C943090716D4C168C9434D
:102AC000090712D46FF00801016104202077206803
:102AD000C0698007204602D0FFF7AEFF04E000F097
:102AE0005FF8204600F05DF8257720680169C9434A
:102AF000C90617D4C168C943C90613D46FF01001C1
:102B00000161082020772068C06910F4407F2046CA
:102B100002D0FFF791FF04E000F042F8204600F0F9
:102B200040F8257720680169C943C90708D1C16801
:102B3000C943C90704D1891E0161204600F032F85B
:102B400020680169C943090609D4C168C943090657
:102B500005D46FF0800101612046FFF707FF206870
:102B60000169C943490609D4C168C943490605D466
:102B70006FF040010161204600F01EF820680169F5
:102B8000C94389060BD4C168C943890607D46FF0CD
:102B9000200101612046BDE87040FFF7E8BE70BD2E
:102BA0007047704700680349884201D1FFF78EBB28
:102BB00070470000003401407047704710B504466C
:102BC0000068406994F84110C0F3C010212911D168
:102BD00080B12068143050E8001F21F0800140E8E7
:102BE0000012002AF5D1A06B08B1FFF70DF82046BE
:102BF00000F0F8FD2068406994F84210C0F380109E
:102C0000222911D180B12068143050E8001F21F032
:102C1000400140E80012002AF5D1E06B08B1FEF750
:102C2000F3FF204600F0B7FD002010BD7047000004
:102C3000F8B5016804460868CA684B6910F00F0FC0
:102C40004FF0000559D003F0010602F490773743A6
:102C500065D0C10705D0D10503D5616C41F00101F4
:102C60006164410705D5D90703D0616C41F00201C9
:102C70006164810705D5D90703D0616C41F0040177
:102C80006164010707D502F02001314303D0616C74
:102C900041F008016164616C00293AD0800604D5D6
:102CA000900602D5204600F0ABFD20684069616CBB
:102CB000C0F38010090700D460B3204600F06BFD1C
:102CC00020684069400621D52068143050E8001F74
:102CD00021F0400140E80012002AF5D1E06BA8B1D4
:102CE0006D494163E06BFEF7B3FF002811D0E06B44
:102CF000416B01B0BDE8F040084783060FD593064D
:102D00000DD52046BDE8F84000F07ABD2046FFF71B
:102D10008DFFF8BD2046FFF789FF6564F8BD266B7F
:102D20002023012E7CD1C6067AD5D60678D5086830
:102D30004868009048694FF00206400640D5E16BB4
:102D4000086840680004000CE8D0A28D8242E5D9F2
:102D5000E085886920282DD020680C3050E8001FBD
:102D600021F4807140E80012002AF5D12068143067
:102D700050E8001F21F0010140E80012002AF5D1BF
:102D80002068143050E8001F21F0400140E8001294
:102D9000002AF5D184F84230256320680C3050E8D1
:102DA000001F21F0100140E80012002AF5D1E06B6D
:102DB000FEF72AFF6663A08DE18D401A81B22AE0FA
:102DC000A08DE18D401A81B2E08D0028A6D00029A7
:102DD000A4D022680C3252E8000F20F4907042E830
:102DE0000007002FF5D12068143050E8002F22F0A2
:102DF000010240E80027002FF5D184F84230256316
:102E000020680C3050E8002F22F0100240E8002328
:102E1000002BF5D166632046FFF7CFFEF8BDFFE734
:102E200005062BD5150629D594F841002128F5D1A2
:102E3000A068B0F5805F01D12069B0B1206A411C63
:102E40002162216800784860E08C401E0004000C7C
:102E5000E084E3D12068C16821F08001C16020686E
:102E6000C16841F04001C160D8E7206A0088C0F322
:102E700008004860206A801C2062E5E74006CDD546
:102E80005006CBD5CA68204622F04002CA6084F8BA
:102E9000413000F061F9C1E74D36000870B504001B
:102EA00004D094F84100002510B106E0012070BD67
:102EB00084F84050204600F023F8242084F8410094
:102EC0002068C16821F40051C160204600F0FAFC7E
:102ED0002068016921F4904101612068416921F075
:102EE0002A0141612068C16841F40051C1606564F4
:102EF000202084F8410084F842006563002070BD02
:102F00002DE9F04186B000240094019402940394CA
:102F10000646DFF83CC103684E48022103224E4DAD
:102F200010274FF0800863454ED1836943F48043F6
:102F30008361836903F480430493836943F004034A
:102F400083618069039200F0040004900802CDE9D7
:102F5000000169462846FFF7B1F82815CDE90004BD
:102F6000694628460294FFF7A9F83D4D3B48C5E95C
:102F70000007C5E902482C616C61AC6147462846F0
:102F8000EC61FFF725F808B1FEF73CFEB5636E6211
:102F9000334D324844351430C5E90004C5E90247D1
:102FA00020202C61C5E905402846EC61FFF710F8A8
:102FB00008B1FEF727FEF5630022052125206E6289
:102FC000FFF716FA25203DE0DFF898C063453BD1B6
:102FD000C36943F40033C361C36903F4003304934A
:102FE000836943F0040383618069039200F0040065
:102FF00004900420CDE9000169462846FFF75EF8F9
:103000000820CDE90004694628460294FFF756F8E7
:10301000134D124888353C302860C5E90174C5E974
:1030200003846C61AC612846EC61FEF7D1FF08B106
:10303000FEF7E8FDB5630022052126206E62FFF74A
:10304000D7F92620FFF7C6F906B0BDE8F0810000E9
:1030500000380140001002400008014044000240D6
:10306000B40400200044004038B501680A68D24327
:10307000D2061CD40E4A914219D10A6849680091BF
:10308000FFF79CFD0B48006840680B4CC0F1400006
:1030900082B20A49628001F18000FDF73EFA012008
:1030A0002070BDE8384040210448FDF78ABA38BD99
:1030B00000380140F804002008000020E802002049
:1030C00090F84230202B01D00220704721B11AB174
:1030D0000023036300F052BC012070477047704723
:1030E00070B5044690F84100202801D0022070BD40
:1030F00049B342B32162A284E284002060642123A8
:1031000084F84130A56B114BAB62A56B104BEB62A1
:10311000A56B104B2B63A36B5863256813462A1DC0
:10312000A06BFEF793FF21686FF0400008602068F5
:10313000143050E8001F41F0800140E80012002ADE
:10314000F5D1002070BD012070BD00004B37000894
:103150008D3700085D36000830B4124D124B0168FF
:10316000114C6814114A803BA94209D110490968E1
:10317000A14201D9106000E058600D4890380CE081
:103180000C4DA9420CD10A4988310968A14201D9E4
:10319000106000E058600648483830BCFFF70EBDAC
:1031A00030BC7047003801408000024004040240F7
:1031B000B4040020004400407047FEE7114808B501
:1031C000416941F0010141614069002200F00100C4
:1031D000009005210E20FFF70BF90E20FFF7FAF8FB
:1031E000002205210F20FFF703F90F20FFF7F2F867
:1031F000002205211120FFF7FBF8BDE8084011204F
:10320000FFF7E8B80010024000B587B01C2206495D
:103210006846FDF782F90021684600F093FE0349F5
:10322000086007B000BD00005C54000800000020EA
:103230002DE9F04F85B000243648009401940294A3
:103240000394816941F040018161816901F040018D
:103250000491816941F010018161816901F01001DF
:103260000491816941F004018161816901F00401E7
:103270000491816941F008018161816901F00801CF
:103280000491816941F0200181618069DFF88890B3
:1032900000F020000490002220214846FFF70AF8A1
:1032A000DFF878A04FF48247002239465046FFF7F6
:1032B00001F8DFF86CB04FF48078002241465846A0
:1032C000FEF7F8FF20200126CDE900060225694619
:1032D0004846CDE90245FEF7F1FE4FF43040CDE916
:1032E00000050320039069465046FEF7E7FECDE94E
:1032F000007669465046CDE90245FEF7DFFECDE98E
:10330000008669465846CDE90245FEF7D7FE05B06E
:10331000BDE8F08F0010024000180140000C014091
:103320000014014010B5114C0F480C2120604FF4DF
:10333000E13060600020A060E060C4E90401A061A9
:10334000E0612046FFF7AAFD08B1FEF75BFC2068AC
:10335000C16841F01001C160BDE81040402204493D
:103360000248FFF7ADBE00000038014024040020F1
:10337000E80200200C4810B50A4901604FF4E13121
:103380004160002181600C22C160C0E904128161AA
:10339000C161FFF783FD002803D0BDE81040FEF7B0
:1033A00031BC10BD004400406C040020FEE700006A
:1033B00030B5344C63700024334B062814D2DFE858
:1033C00000F01303142A384D83E807005FF0010072
:1033D00000EB4001401C43F8214003EB8101C0B2E7
:1033E0004C608C600528F3D330BD1C605C6003F139
:1033F0000C059C6085E807005FF0020000EB4001CF
:10340000401C43F8214003EB8101C0B24C608C604A
:103410000528F3D330BD1C605C609C60DC601C61DF
:10342000C3E9054003F11C0585E816009C62DC62D7
:1034300010E003F1240585E80700002000EB4001BF
:10344000401C43F8214003EB8101C0B24C608C600A
:103450000328F3D31C635C639C6330BD03F1300528
:1034600085E807005FF0000000EB4001401C43F8D6
:10347000214003EB8101C0B24C608C600428F3D37F
:1034800030BD000008000020E8030020FEE7000037
:10349000094C88B0012000F049FD1C22074968460C
:1034A000FDF73BF80021684600F04CFD60602068A5
:1034B00001F07CFBEEE700000000002078540008DB
:1034C000094C0A4E00250A2000F030FD2078012822
:1034D000F9D1074800F032FC3070257040210448D3
:1034E000FDF74DF8EFE70000080000200C00002079
:1034F0006803002010B5502080F31188BFF34F8F70
:10350000BFF36F8F01F0C0FC18B104494FF0805039
:103510000860002080F3118810BD000004ED00E079
:1035200030B58FB028216846FDF74BF814210AA862
:10353000FDF747F801210804CDE9001000240294AA
:1035400002250491CDE907504FF4E0100990684638
:10355000FFF77CF808B172B6FEE70F20CDE90A0547
:103560004FF48060CDE90C4002210AA80E94FEF7CA
:1035700071FF002801D072B6FEE70FB030BD704772
:103580000148FFF75ABA000080050020F0B5026834
:103590001C4B1D4D1D4E1E4F1E4C4FF0804C984233
:1035A00009D0A04207D0604505D0A84203D0B04260
:1035B00001D0B84204D122F0700E4A6842EA0E02ED
:1035C000984209D0A04207D0604505D0A84203D058
:1035D000B04201D0B84203D122F44075CA682A43F0
:1035E0004D6922F080022A4302608A68C2620A683A
:1035F0008262984201D0A04201D109690163012190
:103600004161F0BD002C0140000400400008004072
:10361000000C00400034014030B40A4B5A241C70A6
:1036200058709970DA700848064A40781871FF207F
:103630005871987102F5CA7130BC0623A1F1D0000F
:1036400000F0FEB9A80300200800002010B5406A71
:103650000021C185C184FFF7E9FA10BD70B5446A45
:103660002068406994F84110C0F3C010002521295A
:1036700004D118B1E584204600F0B4F82068406910
:1036800094F84210C0F38010222904D118B1E585C6
:10369000204600F080F8606C40F010006064204626
:1036A000FFF7C4FA70BD10B50146406A09680968A1
:1036B0004FF0000289062ED4C28501680C3151E812
:1036C000003F23F4807341E80034002CF5D10168F9
:1036D000143151E8003F23F0010341E80034002C8D
:1036E000F5D10168143151E8003F23F0400341E86F
:1036F0000034002CF5D1202180F84210016B012903
:1037000009D101680C3151E8003F23F0100341E872
:103710000034002CF5D14263016B012902D0FFF780
:10372000DDFC10BD818DFFF748FA10BD10B5406A71
:1037300001214163016B012902D0FFF7D0FC10BDCC
:10374000818D4908FFF739FA10BD10B50146406A6E
:1037500009680968890616D40021C18401681431FA
:1037600051E8002F22F0800241E80023002BF5D120
:1037700001680C3151E8002F42F0400241E800237B
:10378000002BF5D110BDFFF7E7FC10BD10B5406A66
:10379000FFF712FD10BD01680C3151E8002F22F433
:1037A000907241E80023002BF5D10168143151E8F3
:1037B000002F22F0010241E80023002BF5D1016B1C
:1037C000012909D101680C3151E8002F22F01002C3
:1037D00041E80023002BF5D1202180F84210002180
:1037E0000163704701680C3151E8002F22F0C002DC
:1037F00041E80023002BF5D1202180F841107047CB
:1038000008B590F84210222901D0022008BD826834
:103810004FF480539A4201D1016921B1816A9A42E1
:103820001BD04AB10AE00268816A5268C2F30802FA
:103830000A80816A891C08E0026972B102685268D4
:1038400002F07F020A70816A491C8162C18D491EA3
:103850000904090CC18503D01BE002685268F1E736
:103860000168CA6822F02002CA600168CA6822F4AE
:103870008072CA6001684A6922F001024A6120210F
:1038800080F8421000214163026B012A03D0FFF748
:1038900025FC002008BD016301680C3151E8002FB0
:1038A00022F0100241E80023002BF5D101680A68DC
:1038B000D20602D50A6849680091818DFFF77DF92B
:1038C000E7E7000070B5044600680169E26821F48A
:1038D0004051114301612169A068084361690843AF
:1038E0002168CA6841F20C639A430243CA602068A7
:1038F0004169A26921F44071114341611E49206868
:10390000884202D1FEF76CFE01E0FEF759FE00EBA3
:10391000C00101EB0012606864218000B2FBF0F38B
:10392000B3FBF1F36FF018067343B2FBF0F5B2FB93
:10393000F0F605EB8305322303EB0515B5FBF1F536
:10394000B6FBF1F605F0F00505EB0615B2FBF0F657
:10395000B2FBF0F0B0FBF1F06FF01802504306EB51
:10396000800003EB0010B0FBF1F0216800F00F00C5
:103970002844886070BD00000038014038B581627D
:1039800004468285002013466064222284F8422087
:10399000E56B1B4AAA62E56B1A4AEA62E56B1A4AB2
:1039A0002A63E26B50630A462168E06B091DFEF74B
:1039B0004DFB2068016840680090206948B120688C
:1039C0000C3050E8001F41F4807140E80012002ADA
:1039D000F5D12068143050E8001F41F0010140E8A3
:1039E0000012002AF5D12068143050E8001F41F081
:1039F000400140E80012002AF5D1002038BD000047
:103A0000A73600082D3700085D36000810B50748B6
:103A1000FFF72AFB0548FFF70BF94022044903484A
:103A2000FFF74EFB0028F8D110BD00002404002051
:103A3000E80200200148FFF7FBB800006C040020FA
:103A40002DE9F0411D4616460C4607462046FEF776
:103A500097F90128FAD12068016821F0010101607D
:103A60002A4631463846BDE8F041FFF739BBFEE74C
:103A70000907090E002804DB00F1E02080F800149B
:103A8000704700F00F0000F1E02080F8141D70472F
:103A900040F2013200204FF0E04101F093BC000001
:103AA000024A0020110701F08DBC000001FDFFFF5C
:103AB00010B50446D1E9000100F002F8206010BD05
:103AC000F8B504460D466A4600F076F900987E3057
:103AD000009000281EDC002213462046294601F0F3
:103AE0000BFB17D0002140F608004FF000000646FF
:103AF0002046294601F0BAFA044640F6080006EAD4
:103B000000014FF0000034F0004004BF0220FDF738
:103B1000DFF929E00098FF2828DB002108464FF054
:103B2000000000F44006002213462046294601F01A
:103B3000D9FB8CBF002501250220FDF7C9F94FF004
:103B4000FF4446B1002D0CBF4FF400004FF480003D
:103B5000B04218BF084C042108464FF00000002D69
:103B600004BF84F00040F8BD2046F8BD2046294639
:103B7000BDE8F84001F07ABAFFFF7F7F10B5044638
:103B80000A46D4E90003194600F07FF9C4E90001B0
:103B900010BD30380A2801D201207047002070473C
:103BA00010B530B1036823B1D0E90121914201D2AF
:103BB00004E0002010BD491C816020B1914202D276
:103BC0005C5C202CF7D99142F4D1491E816010BD74
:103BD00070B504460F4E19E0A0892568C0050AD4C7
:103BE000A06820B1FFF7F4FFA089C00503D42069C5
:103BF00008B171688847A089800503D4206A08B19C
:103C0000716888477168204688472C46002CE3D1AC
:103C100070BD000018000020002200F0F9B810B5B7
:103C2000016828208847040002D02821FCF7C9FC3D
:103C3000204610BD0022114600F06EB82DE9F04775
:103C400088B00F4604469A4616461C216846FCF783
:103C5000B8FC2F480025002C0560456055D08146F2
:103C6000E7B3CDE900470295D9E90212D9F810006F
:103C70000491CDE9052009F10800FFF7D0FF5FEAC4
:103C800000082BD000986F4608B1029808B10027B1
:103C90000BE00198042808D903221EA10098FCF724
:103CA000F1FB10B90298C01C02903846FFF778FF6C
:103CB0000146404600F07CFB68B1BAF1000F13D01A
:103CC0006846FFF76DFFDDE90101814203D20299E9
:103CD0000098405C40B14046FFF77AFFDDE90110F3
:103CE00088420AD205460BE01EB1029900980844AA
:103CF0003060404608B0BDE8F087081E00D0451E81
:103D00000EB160193060C9E900450020F2E70000FB
:103D100010000020EFBBBF0070B515460E46040032
:103D200009D0FCF790FB411C2B4632462046BDE8EB
:103D30007040FFF783BF002070BD00002DE9F04107
:103D4000FFF778FF070026D014A1FFF765FF804634
:103D500013A13846FFF760FF064613A13846FFF768
:103D60005BFF054611A13846FFF756FF0446037D69
:103D70002A7D317D98F81400FFF71AFB3846FFF7CB
:103D800027FF237D2A7D317D98F81400FFF744FC3E
:103D90000020BDE8F0810120FBE70000636800001F
:103DA000737461746500000076656C0077617465FA
:103DB000725F73770000000010B514460022226085
:103DC000114A21F000439342A8BF10BD53EA0002FC
:103DD00008BF10BDB3F5801FA8BF226807DA3622DE
:103DE00001F0F0FA6FF0350221F000432260DFF8B5
:103DF0001CC06FF31E510CEB23531A4441F0FF51CA
:103E000041F00051226010BD0000F07F02FCFFFF76
:103E10002DE9F0418846A8B3B8F1000F33D084688B
:103E20000AB90AE024686CB3216A59B34046FCF72A
:103E3000EFFB0028F6D120E024681CB3266A5FEA75
:103E40000805F9D0002EF7D0B54218D002E098B19D
:103E50006D1C761C2878FCF7E9FA07463078FCF7E9
:103E6000E5FA87422878F2D0FCF7E0FA0546307888
:103E7000FCF7DCFA8542DFD124B1206A10B120467C
:103E8000BDE8F081FFE70020FAE72DE9F0410646A2
:103E90000C4640F2FF75174635EA14502BD000222D
:103EA0001346304601F028F925D03A4630462146DF
:103EB00001F088FA06460C4635EA145010D000226C
:103EC0001346304601F018F915D10220FDF700F82D
:103ED000FFF7E6FD0A46214662F31E01BDE8F081C8
:103EE0000220FCF7F5FFFFF7D3FD0A46214662F3F7
:103EF0001E01BDE8F08130462146BDE8F081FEF7A5
:103F0000EDF9FFF70DFBFFF793F9FFF757F9FFF70F
:103F100009FAFFF72FFAFFF777F900F00EF8FEE73E
:103F200001460020842900D0C81C704710B500B994
:103F3000012000F015FE002010BD10B500F08CFE31
:103F4000002010BD7FB50D4604464169B0F9080058
:103F500081B1A16971B1FFF7E3FFD4E905128DE8E2
:103F60000700D4E900102B46226900F062FF03909D
:103F700004B070BDFFF7D4FF03A9CDE90001208A8A
:103F80002B4682B2D4E9001000F026FF012801D0B0
:103F90000020EDE70398EBE72DE9F0410746002507
:103FA000C8680C462E46B0F57A7F5BD2401CE060B4
:103FB0002168A068095C5B2954D1401CA0602046A0
:103FC000FFF7EEFD4CB1D4E90110884203D222681C
:103FD000125C5D2A33D0884203D3A068401EA060E3
:103FE00040E0401E04F11008A0604046FFF717FEB5
:103FF00098B30DB3306046600646A068401CA060D0
:104000002046FFF7CDFD2146304600F0D1F930B310
:104010002046FFF7C5FD14B3D4E90110884203D24E
:104020002168095C2C29E0D06268904217D221688F
:10403000085C5D2813D102E005462E46DDE7E06806
:10404000401EE06005B16E602020C7E90250A06804
:10405000401CA0600120BDE8F081FFE715B12846B3
:10406000FFF7B6FD0020F6E7034610B50020024634
:10407000995CA1F13004092C01D830380AE0A1F193
:104080004104052C01D8373804E0A1F16104052C66
:1040900008D857380844032A00D20001521C042AC9
:1040A000E6D310BD002010BD2DE9F04192B04FF0D5
:1040B000000506460C004FF02E03284610953CD014
:1040C0002168D1B36A4627E027683944415C342926
:1040D0001BD00ADCA1F12B07092F23D2DFE807F060
:1040E0001522151722151515150038290DD006DCD7
:1040F00035290AD0362908D0372913D105E03929C6
:1041000003D0452901D065290CD1115400E0135486
:10411000401C3F2806D22CB1A168D4F804C00F1867
:104120006745D1D31554904610A9104600F0DEFB28
:104130000F4610990546884503D1002012B0BDE80E
:10414000F081C6E90657114A114B2846394601F05D
:10415000C9F802D86FF000400DE000220D4B284650
:10416000394601F035F802D84FF0004003E0284608
:10417000394600F0FDFF70610820F060109AA168D8
:10418000A2EB08000844A0600120D7E70000C0FFB0
:10419000FFFFDF410000E0C12DE9F04107460026A6
:1041A000C8680C463546B0F57A7F78D2401CE0608E
:1041B000002C74D0D4E90110884270D22168095CC7
:1041C0007B296CD1401CA0602046FFF7E9FCD4E9B4
:1041D0000110884203D22268125C7D2A4CD08842AA
:1041E000A0F10100A0605AD204F110084046FFF788
:1041F00016FDE8B3F6B1286045600546A068401C8E
:10420000A0602046FFF7CCFC2146284600F049F884
:1042100078B32046FFF7C4FC286928620020286193
:104220003CB3D4E90110884236D22168095C3A29AE
:1042300032D102E006463546E0E7401CA060204649
:10424000FFF7AEFC2146284600F0B2F888B12046C0
:10425000FFF7A6FCD4E90110884203D22168095C6B
:104260002C29C3D06268904216D22168085C01E014
:1042700011E011E07D280FD1E068401EE06006B13A
:1042800075604020C7E90260A068401CA060012062
:10429000BDE8F08103E016B13046FFF799FC00203D
:1042A000F6E72DE9F84380468B6808684FF000096F
:1042B000C418CDF8009008680E46651CC15C641CEB
:1042C00022296ED10022716808E0BCF15C0F04D194
:1042D0007F1C8F4265D2521C641C641C271A8F42BB
:1042E00004D294F800C0BCF1220FEED1271A8F42FD
:1042F00057D22178222954D11844201A801A3169C2
:10430000401C884707004CD0009737E029785C298B
:1043100005D000986D1C00F8011B00902EE00220D3
:10432000611B012939DB6A78662A14D008DC222A4D
:1043300012D02F2A10D05C2A0ED0622A2DD108E08C
:104340006E2A0ED0722A0ED0742A0ED0752A24D16D
:104350000DE0082200E00C22009901F8012B0091E9
:104360000BE00A22F8E70D22F6E70922F4E76A4695
:104370002146284600F0C8FA78B10544A542C5D3C5
:10438000009981F800901021C8E903173068201ABD
:10439000401CB0600120BDE8F88317B17169384650
:1043A000884715B13068281AB0600020F3E7000094
:1043B00070B50C0005465ED0206800285BD0A1686F
:1043C00063680A1D9A4205D80844042231A1FCF70B
:1043D00059F878B3A0686268411D0126914206D859
:1043E0002168052208442DA1FCF74CF828B3A068E9
:1043F0006268011D914206D821680422084429A15F
:10440000FCF740F8E8B1D4E90101814203D2226807
:10441000525C222A1DD0814221D22268525C2D2A70
:1044200002D0303A092A1AD821462846BDE8704001
:10443000FFF73ABE0420E86006E0EE60A068401D89
:1044400004E002206E61E860A068001DA060012009
:1044500070BD21462846BDE87040FFF722BF81426B
:1044600003D22268525C5B2A07D0814203D22068C3
:10447000405C7B2807D0002070BD21462846BDE85F
:104480007040FFF789BD21462846BDE87040FFF720
:1044900083BE00006E756C6C0000000066616C737A
:1044A0006500000074727565000000002DE9F041A0
:1044B000184C0F46054666692068001D00F08DFA0D
:1044C00038B9206890F82C1001208840A1698143F8
:1044D000A161681C07D137B12168BDE8F0410E48E1
:1044E000091D00F0BDBA20683544B5424560216819
:1044F00005D2A068BDE8F041091D00F099BA6068D6
:10450000091D00F095FA206B854200D22563BDE8B5
:10451000F081000034000020A40600202DE9F041C5
:10452000054600F0A9FA2E4C2069401C2061206845
:104530002C4F10B1E06940B32DE0256020690128BF
:1045400029D1002606EB860007EB800000F062FA16
:10455000761C072EF6D323488C3000F05BFA2148F6
:10456000A03000F057FA1F48B43000F053FA1D484D
:10457000C83000F04FFA1B48DC3000F04BFA194805
:104580008C3060601430A06005E02068E96AC06A81
:10459000884200D82560E06A401CE062E96A012098
:1045A000A26988401043A06101EB810007EB800005
:1045B000291D00F055FA00F07FFAE06900280CD0C0
:1045C0002068E96AC06A884207D207494FF08050E4
:1045D0000860BFF34F8FBFF36F8FBDE8F08100001D
:1045E00034000020C805002004ED00E010B50446AA
:1045F00090F8510058B101280CD002280FD050205B
:1046000080F31188BFF34F8FBFF36F8FFEE7206BEE
:1046100000F066FA2046BDE8104000F061BA10BD17
:1046200010484FF44061420706D0C01D0D4920F0EC
:104630000700411AC1F540610B4A00230144C2E959
:1046400000030839103A21F0070111604B600B603C
:104650000B1AC0E9001393604FF000405360D06024
:1046600070470000B806002080000020144E154C52
:10467000A6F1C8074FF08058DFF84C9012E000BF59
:1046800000F0FAF9F068C568281D00F0A6F9206965
:10469000401E2061E068401EE06000F00DFA2846F0
:1046A000FFF7A4FFE0680028EAD138680128F9D9AB
:1046B000C9F80080BFF34F8FBFF36F8FF2E70000A0
:1046C000900600203400002004ED00E02DE9F047C2
:1046D0009A46DDE9098481466FF00303206B03EB02
:1046E00082021044089D20F00706700707D0502072
:1046F00080F31188BFF34F8FBFF36F8FFEE723184E
:104700000A5C83F834200A5C12B1401C1028F6D3EE
:10471000002784F84370072D00D30625E562C4E91D
:104720001157201D00F081F904F1180000F07DF907
:104730002461C5F107006462A061E76484F85070E9
:1047400052464946304600F0BFF82060B8F1000FED
:1047500001D0C8F80040BDE8F087000030B511492D
:1047600000E011460A688242FBD34B685C18844221
:1047700003D1406818444860084643681C189442B6
:1047800009D1084C103C2468A24209D052681A444E
:1047900042600A6812680260814200D0086030BD41
:1047A0000460F9E78000002006484168096829B1E3
:1047B0004168C968C9684968016370474FF0FF31B3
:1047C000FAE700003400002008484068401C4FF021
:1047D000500080F3118804D0BFF34F8FBFF36F8F69
:1047E000FEE7BFF34F8FBFF36F8FFEE78800002017
:1047F0002DE9F0410546002700F064FA314E30689B
:1048000008B9FFF70DFFF06805424BD1C5B3083575
:1048100068070ED005F00700C0F1080005446807DE
:1048200007D0502080F31188BFF34F8FBFF36F8FF5
:10483000FEE72DB37068854234D822481030014617
:104840000C6801E020460C466168A94202D221684A
:104850000029F7D131688C4224D0076821680160B3
:1048600060680837411B10290FD96019420708D02A
:10487000502080F31188BFF34F8FBFF36F8FFEE797
:1048800010E041606560FFF769FF61687068401A79
:104890007060B268904200D2B060F06801430020BE
:1048A000C4E9000100F054FB780707D0502080F3E2
:1048B0001188BFF34F8FBFF36F8FFEE73846BDE817
:1048C000F08100007000002010B5031F4FF08074CD
:1048D0001C601B1F21F001011960191F024B0B60A6
:1048E000143940380A6010BDC947000800B583B0CC
:1048F0000A460021CDE9001101466846FCF7E0F9BF
:10490000DDE9000103B000BD2DE9F04705460027B1
:10491000481B1646894606285DDBA81CFFF7A4FB4A
:104920000446A0F55C414FF48060814253D3A4F566
:104930005841824651451AD2A81DA9EB00014FF0FB
:104940000C08062947DB01785C2944D14178752998
:1049500041D1801CFFF788FBA0F55C4151453AD25C
:10496000C4F3090161F39F2000F5803002E04FF0AD
:1049700006082046802801D2012110E0B0F5006F22
:1049800002D20221C0270AE0B0F5803F02D2032103
:10499000E02704E0B0F5881F1DD20421F0274A1E4D
:1049A00008E000BF00F0BF03346843F080038009D3
:1049B000A354521E12F0FF02F4D1012901D9384349
:1049C00001E000F07F003268107030680844306009
:1049D0004046BDE8F0870020FBE7D0E901320169DD
:1049E0009A60D0E901235A604A68824201D1826804
:1049F0004A60002202610868401E0860086870472B
:104A0000034B036003F1540008608020106070477E
:104A10009400002000F108014FF0FF32C0E90112BC
:104A2000C160016100210160704700210161704790
:104A300030B50B685A1C02D000F1080202E002698E
:104A400004E02246546825689D42FAD953684B60B9
:104A500099608A60516008610168491C016030BD3D
:104A600042684A6093688B609368596091600861FE
:104A70000168491C01607047502080F31188BFF322
:104A80004F8FBFF36F8F0A494868401C4860012868
:104A90000CD10848006810F0FF0F07D0502080F3B9
:104AA0001188BFF34F8FBFF36F8FFEE77047000091
:104AB0008800002004ED00E00849486828B1401E45
:104AC000486001D180F311887047502080F311882D
:104AD000BFF34F8FBFF36F8FFEE700008800002009
:104AE00070B5002827D0144DA0F108046168E8686B
:104AF000014207D1502080F31188BFF34F8FBFF3DD
:104B00006F8FFEE722683AB1502080F31188BFF31F
:104B10004F8FBFF36F8FFEE78143616000F0D2F8E3
:104B200060686968084468602046FFF717FEBDE8C2
:104B3000704000F00DBA70BD700000204FF0E02012
:104B400000210161816105494FF47A720968B1FB66
:104B5000F2F1491E416107210161704730000020D8
:104B600010B5020014D00F48806B38B1502080F38C
:104B70001188BFF34F8FBFF36F8FFEE700F0A2F8ED
:104B800000211046FFF792FC00F0E2F9002807D15F
:104B900005494FF080500860BFF34F8FBFF36F8F10
:104BA00010BD00003400002004ED00E070B50546A3
:104BB000FFF762FF254C05B92568281DFFF70DFF9B
:104BC00058B9E86A224A00EB800152F8211021B955
:104BD00001218140A0698843A061A86A18B105F14C
:104BE0001800FFF7FAFEE06A401CE0622068854288
:104BF00008D11748291DC830FFF732FFE068401C74
:104C0000E06007E02069401E20612846FFF7EEFCC7
:104C1000FFF7CAFDFFF750FFE069002814D02068B5
:104C2000854211D1A06B38B1502080F31188BFF3B9
:104C30004F8FBFF36F8FFEE706494FF0805008603B
:104C4000BFF34F8FBFF36F8F70BD000034000020A3
:104C5000C805002004ED00E010B586B000240394E0
:104C600005AA04A903A80494FFF7CAFEDDE903011D
:104C70000094CDE9011000230EA11048059A00F020
:104C8000D8F80F490028486311D0502080F31188CC
:104C9000BFF34F8FBFF36F8F4FF0FF3008630120DA
:104CA000C8614C6106B0BDE8104000F041B806B0E4
:104CB00010BD000049444C45000000006D4600084E
:104CC000340000200248816B491C8163704700005A
:104CD000340000201448816B11B1012141627047FA
:104CE000002141628169B1FA81F1C1F11F0101EB3B
:104CF00081020E4951F822306BB101EB820101F1C2
:104D000008034A6852684A609A4201D152684A6070
:104D1000D16801607047502080F31188BFF34F8F36
:104D2000BFF36F8FFEE7000034000020C8050020AD
:104D30001CB5264908780190FF20087008788DF886
:104D400000009DF800009DF8002000F0F000904267
:104D500007D0502080F31188BFF34F8FBFF36F8FC0
:104D6000FEE79DF800001A4B00F050001870072075
:104D7000986005E09DF8002052008DF80020401E4C
:104D80009DF800201206F5D49860032807D0502023
:104D900080F31188BFF34F8FBFF36F8FFEE74FF49F
:104DA00040709860019808700A48016841F47001E9
:104DB0000160016841F070410160FFF7BFFE002013
:104DC0005860FBF727FA00201CBD000000E400E05B
:104DD0008800002020ED00E02DE9FF5F8346DDE93B
:104DE0000E87994616468A469000FFF701FD05009A
:104DF0001CD05420FFF7FCFC040014D000202563D5
:104E000084F85100CDE90240CDE900874B46324697
:104E100051465846FFF75AFC2046FFF77FFB01201A
:104E200004B0BDE8F09F2846FFF75AFE4FF0FF3070
:104E3000F6E7F0B585B0DDE90B640A9DA6B1DCB1FB
:104E4000542700972663022684F85160002604AF99
:104E5000CDE90246CDE90057FFF738FC2046FFF7C1
:104E60005DFB049805B0F0BD502080F31188BFF3BE
:104E70004F8FBFF36F8FFEE7502080F31188BFF391
:104E80004F8FBFF36F8FFEE72DE9F0412E4C0027C7
:104E9000A06B40B1206A401C2062606A00B101270B
:104EA0003846BDE8F0816669761C666113D160689A
:104EB000006838B1502080F31188BFF34F8FBFF3E3
:104EC0006F8FFEE76068A1686160A060A06A401C07
:104ED000A062FFF769FC206BDFF87080864209D37F
:104EE0006068006880B16068C068C56868688642AC
:104EF0000DD220632068C06A00EB800158F82100C1
:104F00000128CAD90127C8E74FF0FF30F1E7281D73
:104F1000FFF763FDA86A18B105F11800FFF75DFD02
:104F2000E86A0121A26981401143A16100EB80017F
:104F300008EB8100291DFFF793FDE86A2168C96A23
:104F40008842CDD30127CBE734000020C8050020DC
:104F50002DE9F0472C4D00242746A86B38B1FFF708
:104F60008BFDA86B401EA863A86B40B146E05020A3
:104F700080F31188BFF34F8FBFF36F8FFEE729696E
:104F8000224E0120D1B3A6F1B40980463068E8B1C1
:104F9000F068C46804F11800FFF71FFD201DFFF73B
:104FA0001CFDE06AAA6908FA00F11143A96100EB4F
:104FB000800109EB8100211DFFF752FDE06A29689D
:104FC000C96A8842E2D3C5F82480DFE70CB1FFF755
:104FD000EBFB2C6A44B14646FFF756FF00B16E6208
:104FE000641EF9D100202862686A38B10849012797
:104FF00038070860BFF34F8FBFF36F8FFFF75CFD7B
:105000003846BDE8F0870000340000207C06002010
:1050100004ED00E010B500290AD00878002807D078
:1050200005487844FBF7F4FA002801D0002010BDB1
:105030000248784410BD00007A05000072050000A7
:1050400010B500290AD00878002807D00548784410
:10505000FBF7DEFA002801D0002010BD024878449A
:1050600010BD00005E0600005606000021F0004260
:10507000A2F16052B2F5801F01F0004328BFD2F1C7
:105080007F6C0BD95FEA001C43EAC20242EB50700E
:1050900018BF704728BF20F001007047B2F5801F8D
:1050A000BCBF184670474FEA410C1CF5001F02D2E6
:1050B000084600F04DB970B500F0C6F80000008950
:1050C000FFF7F6BF4FF00040A0F5800070470000EA
:1050D00002494FF0000000F043B900BF0000F87F24
:1050E000491058BFC1F140415B1058BFC3F1404364
:1050F0008B42EFF30080704751EA030C17D41CF584
:10510000801F58BFBCF5801F00F10680994218BF70
:10511000704708BF9042704707D711F5801F58BFEE
:1051200013F5801F19D499427047894270471CF5C6
:10513000801F08D5BCF5801FF7D58B4218BF70477C
:1051400008BF824270474FF4001C1CEB410F38BF70
:105150001CEB430F01D28B42704770B500F074F81E
:10516000922449004FF000514FF08053FFF7B8BF31
:105170004FEA41034FEA5353A3F58063D3F11E0373
:10518000C8BFD3F1210C0CDD4FF0004242EAC1222E
:1051900042EA505232FA03FC8CEAE17CACEBE1705B
:1051A0007047102BC4BF0020704703F5787CBCF11A
:1051B000FF3F04D06FF0004282EA2100704770B5D3
:1051C00000F042F84992248000207047F2E7000086
:1051D00051EA030C17D41CF5801F58BFBCF5801F83
:1051E00000F10680994218BF704708BF904270478F
:1051F00007D711F5801F58BF13F5801F19D49942A6
:105200007047894270471CF5801F08D5BCF5801F88
:10521000F7D58B4218BF704708BF824270474FF4E2
:10522000001C1CEB410F38BF1CEB430F01D28B421B
:10523000704770B500F008F8922449004FF0005113
:105240004FF08053FFF74CBF0EF1020E2EF0030E0D
:105250005EF8046B364205D4012A43EB030515F5CD
:10526000001F12D8012841EB010C1CF5001F0CD8BF
:105270000ED14FEAD17C15F5001F0CEB4C0C0CF154
:10528000020C08BF4CEBD37C04E04FF0080C01E0AB
:105290004FEAD37C0CEB4C0526FA05F606F0070620
:1052A000B6F1040C06D20EEB860CBDE870404CF053
:1052B000010C6047DFE80CF0090B02024FF00041DF
:1052C0004FF00000A1F5002170BD194610460128DD
:1052D00051EB010418BFD4F5001484BF002001F085
:1052E000004170BD53EA010C17D41CF5801F58BF54
:1052F000BCF5801F00F106808B4218BF704708BFC5
:105300008242704707D713F5801F58BF11F5801FE1
:1053100019D48B4270479B4270471CF5801F08D5FB
:10532000BCF5801FF7D5994218BF704708BF90425F
:1053300070474FF4001C1CEB430F38BF1CEB410FB0
:1053400001D2994270470FB40CBC03BCFFF771BF88
:10535000FF2141EAD050C00570474FF00000704770
:105360000CF00F03092B08BF082000F05F800A2B08
:105370000BD0082B18BF704708BF1CF0400F0AD095
:105380004FF000004FF0000170471CF0400F18BFB5
:105390004FF0004070471CF0100F08D020F0704311
:1053A00000F07F4242EAD3014FEA4370704700F0B9
:1053B000604021F07F4242EA000201F07F4040EA73
:1053C000727070474FF0FF0C4CF4E06C1CEA115304
:1053D0001CBF9CEA030C9445C2BFDA4201EB0251A8
:1053E0007047002B0DD0BCF1000F0FD0002A01F048
:1053F0000041A4BF41F0E04141F07F614FF0000067
:10540000704701F000414FF00000704750EA01334F
:105410004FF09B0C18BF4CF0806C7FF459AE704776
:10542000FBF7BABAFBF75ABDFBF7E8BE1CF4801FC6
:1054300011D01CF4E02F03D06FEACC314900704743
:105440004FF04050EFF3008222F0704242EA000237
:1054500082F3008870474FF00000704760550008E5
:1054600091340008000000000000000080000000EF
:10547000000000000000000054550008C13400087E
:10548000000000000000000080000000000000009C
:1054900000000000010202030405060708090A0BC8
:1054A0000C0D0E0F101000000000000000000102A3
:1054B00003040607080900000000010203040000BD
:1054C00002400000000000A00000000005400000B5
:1054D000000000C8000000000C4000000000409CDC
:1054E00000000000194000000020BCBE00000000C9
:1054F00034400000BFC91B8E00000004B54000000E
:10550000504BCFD06607E2CF010000006C41000095
:105510003E8251AADFEEA73401000000D94200000C
:10552000DCB5A0E23A301F97FFFFFFFFB445000053
:10553000FD25A0C8E9A3C14FFFFFFFFFFF3F00000B
:105540000000008000000000FF3F0000000000801D
:10555000000000005446544C43445461736B0000F7
:1055600064656661756C745461736B00C85600089D
:1055700000000020940000006C0100085C57000847
:1055800094000020841C0000880100080000000036
:105590000000F07FFFFFFFFFFFFFEF7F1001000023
:1055A00043000000F8FFFFFF004040404040404003
:1055B00040404141414141404040404040404040E6
:1055C000404040404040404040050202020202028A
:1055D00002020202020202020220202020202020D9
:1055E00020202002020202020202909090909090ED
:1055F00010101010101010101010101010101010AB
:10560000101010100202020202028888888888881E
:10561000080808080808080808080808080808080A
:105620000808080802020202400000000000000012
:10563000000000000000000000000000000000006A
:10564000000000000000000000000000000000005A
:10565000000000000000000000000000000000004A
:10566000000000000000000000000000000000003A
:10567000000000000000000000000000000000002A
:10568000000000000000000000000000000000001A
:10569000000000000000000000000000000000000A
:1056A0000000000000000000000000001C000000DE
:1056B00043000000F8FFFFFF0C0000000E00000098
:1056C0000F0000002E00000000000000000000009D
:1056D00000000000000000000000000000000000CA
:1056E000C902000827030008750300080100000034
:1056F00010000000000000000024F4000000000082
:105700000000000000000000000000000000000099
:105710000000000000000000000000000000000089
:105720000000000000000000000000000000000079
:105730000000000000000000000000000000000069
:105740000000000000000000000000000000000059
:0C57500000000000AAAAAAAA00000000A5
:0400000508000131BD
:00000001FF
